:100000000C945D000C947A000C947A000C947A00A5
:100010000C947A000C947A000C947A000C947A0078
:100020000C947A000C947A000C947A000C947A0068
:100030000C947A000C947A000C947A000C947A0058
:100040000C9471010C947A000C947A000C947A0050
:100050000C947A000C947A000C947A000C947A0038
:100060000C947A000C947A00000000002400270011
:100070002A0000000000250028002B0004040404CE
:100080000404040402020202020203030303030342
:10009000010204081020408001020408102001021F
:1000A00004081020000000080002010000030407FB
:1000B0000000000000000000FF0211241FBECFEF6F
:1000C000D8E0DEBFCDBF21E0A0E0B1E001C01D92CD
:1000D000A23BB207E1F710E0CDE5D0E004C02197E4
:1000E000FE010E943203CC35D107C9F70E94BB0143
:1000F0000C9438030C940000CF93DF932091B0014F
:100100003091B101A091AE01B091AF01E9EAF0E008
:10011000449165E970E0FB01549181E890E0FC01B5
:10012000C491CC23E1F0442359F0433009F464C076
:1001300008F057C0413009F465C0423009F466C088
:10014000EC2FF0E0EE0FFF1FEE58FF4FC591D4915A
:100150004FB7F894E88150955E2358834FBFFB0159
:100160006491FC018491882399F090E0880F991F95
:10017000FC01E859FF4FC591D491FC01EE58FF4FA7
:10018000859194918FB7F8949881692B68838FBF7C
:10019000F8942150310908F446C0FD01019005D0C2
:1001A000019003D0008001D017C008D007D006D03E
:1001B00005D004D003D002D001D008955D9A001C70
:1001C0000000000008F05D98000000000000000042
:1001D000000008F45D98089513960D90BC91A02D31
:1001E000D8CF4730B1F04830D1F0443009F0A8CF33
:1001F000409180004F7D03C0409180004F77409335
:1002000080009ECF44B54F7744BD9ACF44B54F7D13
:10021000FBCF4091B0004F774093B00091CF409119
:10022000B0004F7DF9CF7894DF91CF9108953FB71B
:10023000F8948091AA019091AB01A091AC01B0918A
:10024000AD0126B5A89B05C02F3F19F00196A11D51
:10025000B11D3FBFBA2FA92F982F8827BC01CD0110
:10026000620F711D811D911D42E0660F771F881F6F
:10027000991F4A95D1F708958F929F92AF92BF929E
:10028000CF92DF92EF92FF920E9417014B015C0127
:1002900084E1C82ED12CE12CF12C0E9417016819A1
:1002A00079098A099B09683E734081059105A8F385
:1002B00021E0C21AD108E108F10888EE880E83E037
:1002C000981EA11CB11CC114D104E104F10429F74A
:1002D000FF90EF90DF90CF90BF90AF909F908F9066
:1002E00008951F920F920FB60F9211242F933F93F0
:1002F0008F939F93AF93BF938091A6019091A70195
:10030000A091A801B091A9013091A50123E0230F8C
:100310002D3758F50196A11DB11D2093A50180939D
:10032000A6019093A701A093A801B093A901809181
:10033000AA019091AB01A091AC01B091AD010196E1
:10034000A11DB11D8093AA019093AB01A093AC01B4
:10035000B093AD01BF91AF919F918F913F912F913C
:100360000F900FBE0F901F90189526E8230F02964E
:10037000A11DB11DD2CF789484B5826084BD84B5AF
:10038000816084BD85B5826085BD85B5816085BD90
:1003900080916E00816080936E0010928100809148
:1003A00081008260809381008091810081608093D0
:1003B0008100809180008160809380008091B100F5
:1003C00084608093B1008091B00081608093B00020
:1003D00080917A00846080937A0080917A008260B4
:1003E00080937A0080917A00816080937A00809176
:1003F0007A00806880937A001092C100EEE9F1E003
:1004000080E290E065E0AC014F715527649F900158
:10041000659F300D112420503F4F31832083019779
:100420003597009781F780EA91E09093A40180933B
:10043000A30177247A947C01C4E6D0E030E0C32E97
:1004400030E0D32E66246A9400E011E05801F501F3
:100450007182108212820E947C000E943C01F5E0B1
:10046000AF0EB11C80EAA81681E0B80681F720E043
:10047000A22E21E0B22EF5011182708212820E941A
:100480007C000E943C01F5E0AF0EB11C80EAA8168A
:1004900081E0B80681F7F8011182108272820E9411
:1004A0007C000E943C010B5F1F4FF1E0003A1F07E8
:1004B00091F7F092AF01E092AE016092A10110922B
:1004C000A0011092A2010E947C0010E01093A001F4
:1004D0000E947C000E943C011B5F1F3FB9F71093F4
:1004E000A1010E947C000E943C011550C1F71093AD
:1004F000A2010E947C000E943C011B5F1F3FB9F7D4
:100500001093A0010E947C000E943C011550C1F78D
:100510001093A1010E947C000E943C011B5F1F3FC1
:10052000B9F71093A2010E947C000E943C01155073
:10053000C1F7F092AF01E092AE011092A1011092CA
:10054000A0011092A2010E947C00B12CA12C912C40
:10055000812C10E000E0C801BE010E940A036093F4
:10056000A101C401BE010E940A036093A001C5015C
:10057000BE010E940A036093A2010E947C000E94B7
:100580003C0101501F4F8CE7880E911CE1E3AE0E39
:10059000B11C0B39F4E61F07F1F684E2A82E83E1C3
:1005A000B82E90E7892E90E3992E0CE913E6C80146
:1005B000BE010E940A036093A101C401BE010E9412
:1005C0000A036093A001C501BE010E940A03609363
:1005D000A2010E947C000E943C010F5F11098CE780
:1005E000881A9108E1E3AE1AB10801151105F9F670
:1005F000C114D10409F428CF0E94000025CFEEEAEF
:10060000F1E080E091E09183808380E290E0938349
:100610008283089597FB072E16F4009407D077FD88
:1006200009D00E941E0307FC05D03EF490958195E9
:100630009F4F0895709561957F4F0895AA1BBB1B2E
:1006400051E107C0AA1FBB1FA617B70710F0A61BD2
:10065000B70B881F991F5A95A9F780959095BC01F3
:10066000CD010895EE0FFF1F0590F491E02D099440
:04067000F894FFCF2C
:00000001FF
